{
  "contractName": "Event",
  "abi": [
    {
      "inputs": [],
      "payable": false,
      "stateMutability": "nonpayable",
      "type": "constructor"
    },
    {
      "anonymous": false,
      "inputs": [
        {
          "indexed": false,
          "internalType": "address",
          "name": "_addr",
          "type": "address"
        }
      ],
      "name": "PublicitymanagerSelect",
      "type": "event"
    },
    {
      "anonymous": false,
      "inputs": [
        {
          "indexed": false,
          "internalType": "address",
          "name": "_addr",
          "type": "address"
        }
      ],
      "name": "VenueSelect",
      "type": "event"
    },
    {
      "anonymous": false,
      "inputs": [
        {
          "indexed": false,
          "internalType": "address",
          "name": "_addr",
          "type": "address"
        },
        {
          "indexed": false,
          "internalType": "string",
          "name": "_category",
          "type": "string"
        },
        {
          "indexed": false,
          "internalType": "uint256",
          "name": "_quote",
          "type": "uint256"
        }
      ],
      "name": "artistReg",
      "type": "event"
    },
    {
      "anonymous": false,
      "inputs": [
        {
          "indexed": false,
          "internalType": "address",
          "name": "_addr",
          "type": "address"
        }
      ],
      "name": "artistSelect",
      "type": "event"
    },
    {
      "anonymous": false,
      "inputs": [
        {
          "indexed": false,
          "internalType": "address",
          "name": "_addr",
          "type": "address"
        },
        {
          "indexed": false,
          "internalType": "uint8",
          "name": "_count",
          "type": "uint8"
        }
      ],
      "name": "participantReg",
      "type": "event"
    },
    {
      "anonymous": false,
      "inputs": [
        {
          "indexed": false,
          "internalType": "address",
          "name": "_addr",
          "type": "address"
        },
        {
          "indexed": false,
          "internalType": "uint256",
          "name": "_quote",
          "type": "uint256"
        }
      ],
      "name": "publicitymanagerReg",
      "type": "event"
    },
    {
      "anonymous": false,
      "inputs": [
        {
          "indexed": false,
          "internalType": "address",
          "name": "_addr",
          "type": "address"
        },
        {
          "indexed": false,
          "internalType": "uint256",
          "name": "_quote",
          "type": "uint256"
        }
      ],
      "name": "sponsorReg",
      "type": "event"
    },
    {
      "anonymous": false,
      "inputs": [
        {
          "indexed": false,
          "internalType": "address",
          "name": "_addr",
          "type": "address"
        }
      ],
      "name": "sponsorSelect",
      "type": "event"
    },
    {
      "anonymous": false,
      "inputs": [
        {
          "indexed": false,
          "internalType": "address",
          "name": "_addr",
          "type": "address"
        },
        {
          "indexed": false,
          "internalType": "uint256",
          "name": "_area",
          "type": "uint256"
        },
        {
          "indexed": false,
          "internalType": "uint256",
          "name": "_quote",
          "type": "uint256"
        }
      ],
      "name": "venueReg",
      "type": "event"
    },
    {
      "constant": true,
      "inputs": [
        {
          "internalType": "address",
          "name": "",
          "type": "address"
        }
      ],
      "name": "artists",
      "outputs": [
        {
          "internalType": "address",
          "name": "addr",
          "type": "address"
        },
        {
          "internalType": "string",
          "name": "category",
          "type": "string"
        },
        {
          "internalType": "uint256",
          "name": "quote",
          "type": "uint256"
        },
        {
          "internalType": "uint256",
          "name": "timestamp",
          "type": "uint256"
        },
        {
          "internalType": "uint8",
          "name": "selected",
          "type": "uint8"
        }
      ],
      "payable": false,
      "stateMutability": "view",
      "type": "function"
    },
    {
      "constant": true,
      "inputs": [],
      "name": "eventDescription",
      "outputs": [
        {
          "internalType": "string",
          "name": "",
          "type": "string"
        }
      ],
      "payable": false,
      "stateMutability": "view",
      "type": "function"
    },
    {
      "constant": true,
      "inputs": [],
      "name": "eventHead",
      "outputs": [
        {
          "internalType": "address",
          "name": "",
          "type": "address"
        }
      ],
      "payable": false,
      "stateMutability": "view",
      "type": "function"
    },
    {
      "constant": true,
      "inputs": [],
      "name": "eventName",
      "outputs": [
        {
          "internalType": "string",
          "name": "",
          "type": "string"
        }
      ],
      "payable": false,
      "stateMutability": "view",
      "type": "function"
    },
    {
      "constant": true,
      "inputs": [],
      "name": "fees",
      "outputs": [
        {
          "internalType": "uint8",
          "name": "",
          "type": "uint8"
        }
      ],
      "payable": false,
      "stateMutability": "view",
      "type": "function"
    },
    {
      "constant": true,
      "inputs": [],
      "name": "location",
      "outputs": [
        {
          "internalType": "string",
          "name": "",
          "type": "string"
        }
      ],
      "payable": false,
      "stateMutability": "view",
      "type": "function"
    },
    {
      "constant": true,
      "inputs": [
        {
          "internalType": "address",
          "name": "",
          "type": "address"
        }
      ],
      "name": "publicitymanagers",
      "outputs": [
        {
          "internalType": "address",
          "name": "addr",
          "type": "address"
        },
        {
          "internalType": "uint256",
          "name": "quote",
          "type": "uint256"
        },
        {
          "internalType": "uint256",
          "name": "timestamp",
          "type": "uint256"
        },
        {
          "internalType": "uint8",
          "name": "selected",
          "type": "uint8"
        }
      ],
      "payable": false,
      "stateMutability": "view",
      "type": "function"
    },
    {
      "constant": true,
      "inputs": [
        {
          "internalType": "address",
          "name": "",
          "type": "address"
        }
      ],
      "name": "sponsors",
      "outputs": [
        {
          "internalType": "address",
          "name": "addr",
          "type": "address"
        },
        {
          "internalType": "uint256",
          "name": "quote",
          "type": "uint256"
        },
        {
          "internalType": "uint256",
          "name": "timestamp",
          "type": "uint256"
        },
        {
          "internalType": "uint8",
          "name": "selected",
          "type": "uint8"
        }
      ],
      "payable": false,
      "stateMutability": "view",
      "type": "function"
    },
    {
      "constant": true,
      "inputs": [
        {
          "internalType": "address",
          "name": "",
          "type": "address"
        }
      ],
      "name": "venues",
      "outputs": [
        {
          "internalType": "address",
          "name": "addr",
          "type": "address"
        },
        {
          "internalType": "uint256",
          "name": "quote",
          "type": "uint256"
        },
        {
          "internalType": "uint256",
          "name": "area",
          "type": "uint256"
        },
        {
          "internalType": "uint256",
          "name": "timestamp",
          "type": "uint256"
        },
        {
          "internalType": "uint8",
          "name": "selected",
          "type": "uint8"
        }
      ],
      "payable": false,
      "stateMutability": "view",
      "type": "function"
    },
    {
      "constant": false,
      "inputs": [
        {
          "internalType": "uint8",
          "name": "_category",
          "type": "uint8"
        },
        {
          "internalType": "uint256",
          "name": "_quote",
          "type": "uint256"
        }
      ],
      "name": "artistRegister",
      "outputs": [],
      "payable": false,
      "stateMutability": "nonpayable",
      "type": "function"
    },
    {
      "constant": false,
      "inputs": [
        {
          "internalType": "uint256",
          "name": "_area",
          "type": "uint256"
        },
        {
          "internalType": "uint256",
          "name": "_quote",
          "type": "uint256"
        }
      ],
      "name": "venueRegister",
      "outputs": [],
      "payable": false,
      "stateMutability": "nonpayable",
      "type": "function"
    },
    {
      "constant": false,
      "inputs": [
        {
          "internalType": "uint256",
          "name": "_quote",
          "type": "uint256"
        }
      ],
      "name": "sponsorRegister",
      "outputs": [],
      "payable": false,
      "stateMutability": "nonpayable",
      "type": "function"
    },
    {
      "constant": false,
      "inputs": [
        {
          "internalType": "uint256",
          "name": "_quote",
          "type": "uint256"
        }
      ],
      "name": "publicitymanagerRegister",
      "outputs": [],
      "payable": false,
      "stateMutability": "nonpayable",
      "type": "function"
    },
    {
      "constant": false,
      "inputs": [
        {
          "internalType": "uint8",
          "name": "_count",
          "type": "uint8"
        }
      ],
      "name": "participantRegister",
      "outputs": [],
      "payable": false,
      "stateMutability": "nonpayable",
      "type": "function"
    },
    {
      "constant": false,
      "inputs": [
        {
          "internalType": "address",
          "name": "_addr",
          "type": "address"
        }
      ],
      "name": "selectArtist",
      "outputs": [],
      "payable": false,
      "stateMutability": "nonpayable",
      "type": "function"
    },
    {
      "constant": false,
      "inputs": [
        {
          "internalType": "address",
          "name": "_addr",
          "type": "address"
        }
      ],
      "name": "selectSponsor",
      "outputs": [],
      "payable": false,
      "stateMutability": "nonpayable",
      "type": "function"
    },
    {
      "constant": false,
      "inputs": [
        {
          "internalType": "address",
          "name": "_addr",
          "type": "address"
        }
      ],
      "name": "selectVenue",
      "outputs": [],
      "payable": false,
      "stateMutability": "nonpayable",
      "type": "function"
    },
    {
      "constant": false,
      "inputs": [
        {
          "internalType": "address",
          "name": "_addr",
          "type": "address"
        }
      ],
      "name": "selectPublicitymanager",
      "outputs": [],
      "payable": false,
      "stateMutability": "nonpayable",
      "type": "function"
    }
  ],
  "bytecode": "0x60806040523480156200001157600080fd5b5033600160006101000a81548173ffffffffffffffffffffffffffffffffffffffff021916908373ffffffffffffffffffffffffffffffffffffffff1602179055506040518060400160405280600381526020017f414243000000000000000000000000000000000000000000000000000000000081525060039080519060200190620000a092919062000288565b506040518060400160405280600381526020017f616263000000000000000000000000000000000000000000000000000000000081525060049080519060200190620000ee92919062000288565b506040518060400160405280600381526020017f78797a0000000000000000000000000000000000000000000000000000000000815250600290805190602001906200013c92919062000288565b5060fa600560006101000a81548160ff021916908360ff16021790555060c8600560016101000a81548160ff021916908360ff1602179055506003600560026101000a81548160ff021916908360ff1602179055506003600b81620001a291906200030f565b506004600c81620001b491906200030f565b5060405180606001604052806040518060400160405280600581526020017f44616e636500000000000000000000000000000000000000000000000000000081525081526020016040518060400160405280600581526020017f4d7573696300000000000000000000000000000000000000000000000000000081525081526020016040518060400160405280600581526020017f5061696e740000000000000000000000000000000000000000000000000000008152508152506000906003620002819291906200033e565b50620004d1565b828054600181600116156101000203166002900490600052602060002090601f016020900481019282601f10620002cb57805160ff1916838001178555620002fc565b82800160010185558215620002fc579182015b82811115620002fb578251825591602001919060010190620002de565b5b5090506200030b9190620003a5565b5090565b8154818355818111156200033957818360005260206000209182019101620003389190620003a5565b5b505050565b82805482825590600052602060002090810192821562000392579160200282015b828111156200039157825182908051906020019062000380929190620003cd565b50916020019190600101906200035f565b5b509050620003a1919062000454565b5090565b620003ca91905b80821115620003c6576000816000905550600101620003ac565b5090565b90565b828054600181600116156101000203166002900490600052602060002090601f016020900481019282601f106200041057805160ff191683800117855562000441565b8280016001018555821562000441579182015b828111156200044057825182559160200191906001019062000423565b5b509050620004509190620003a5565b5090565b6200048291905b808211156200047e576000818162000474919062000485565b506001016200045b565b5090565b90565b50805460018160011615610100020316600290046000825580601f10620004ad5750620004ce565b601f016020900490600052602060002090810190620004cd9190620003a5565b5b50565b613afb80620004e16000396000f3fe608060405234801561001057600080fd5b50600436106101165760003560e01c80638977825b116100a25780639af1d35a116100715780639af1d35a14610633578063b15ff64414610657578063d35590c2146106fd578063e08fe1441461079c578063efa387b3146107e057610116565b80638977825b146104ab5780638c5c850e146104d95780639434571b14610578578063969077a6146105fb57610116565b80633997b27d116100e95780633997b27d146102d3578063516f279e1461031d57806369c20f5a146103a05780637c602f45146103e45780638043c9c01461042857610116565b8063069dab8f1461011b57806310f148e21461022657806321921a6b146102615780632300986f1461028f575b600080fd5b61015d6004803603602081101561013157600080fd5b81019080803573ffffffffffffffffffffffffffffffffffffffff169060200190929190505050610811565b604051808673ffffffffffffffffffffffffffffffffffffffff1673ffffffffffffffffffffffffffffffffffffffff168152602001806020018581526020018481526020018360ff1660ff168152602001828103825286818151815260200191508051906020019080838360005b838110156101e75780820151818401526020810190506101cc565b50505050905090810190601f1680156102145780820380516001836020036101000a031916815260200191505b50965050505050505060405180910390f35b61025f6004803603604081101561023c57600080fd5b81019080803560ff1690602001909291908035906020019092919050505061090c565b005b61028d6004803603602081101561027757600080fd5b8101908080359060200190929190505050610caf565b005b6102d1600480360360208110156102a557600080fd5b81019080803573ffffffffffffffffffffffffffffffffffffffff169060200190929190505050610f32565b005b6102db611703565b604051808273ffffffffffffffffffffffffffffffffffffffff1673ffffffffffffffffffffffffffffffffffffffff16815260200191505060405180910390f35b610325611729565b6040518080602001828103825283818151815260200191508051906020019080838360005b8381101561036557808201518184015260208101905061034a565b50505050905090810190601f1680156103925780820380516001836020036101000a031916815260200191505b509250505060405180910390f35b6103e2600480360360208110156103b657600080fd5b81019080803573ffffffffffffffffffffffffffffffffffffffff1690602001909291905050506117c7565b005b610426600480360360208110156103fa57600080fd5b81019080803573ffffffffffffffffffffffffffffffffffffffff169060200190929190505050611fbb565b005b61043061278c565b6040518080602001828103825283818151815260200191508051906020019080838360005b83811015610470578082015181840152602081019050610455565b50505050905090810190601f16801561049d5780820380516001836020036101000a031916815260200191505b509250505060405180910390f35b6104d7600480360360208110156104c157600080fd5b810190808035906020019092919050505061282a565b005b61051b600480360360208110156104ef57600080fd5b81019080803573ffffffffffffffffffffffffffffffffffffffff169060200190929190505050612aad565b604051808573ffffffffffffffffffffffffffffffffffffffff1673ffffffffffffffffffffffffffffffffffffffff1681526020018481526020018381526020018260ff1660ff16815260200194505050505060405180910390f35b610580612b0a565b6040518080602001828103825283818151815260200191508051906020019080838360005b838110156105c05780820151818401526020810190506105a5565b50505050905090810190601f1680156105ed5780820380516001836020036101000a031916815260200191505b509250505060405180910390f35b6106316004803603604081101561061157600080fd5b810190808035906020019092919080359060200190929190505050612ba8565b005b61063b612e7b565b604051808260ff1660ff16815260200191505060405180910390f35b6106996004803603602081101561066d57600080fd5b81019080803573ffffffffffffffffffffffffffffffffffffffff169060200190929190505050612e8e565b604051808673ffffffffffffffffffffffffffffffffffffffff1673ffffffffffffffffffffffffffffffffffffffff1681526020018581526020018481526020018381526020018260ff1660ff1681526020019550505050505060405180910390f35b61073f6004803603602081101561071357600080fd5b81019080803573ffffffffffffffffffffffffffffffffffffffff169060200190929190505050612ef1565b604051808573ffffffffffffffffffffffffffffffffffffffff1673ffffffffffffffffffffffffffffffffffffffff1681526020018481526020018381526020018260ff1660ff16815260200194505050505060405180910390f35b6107de600480360360208110156107b257600080fd5b81019080803573ffffffffffffffffffffffffffffffffffffffff169060200190929190505050612f4e565b005b61080f600480360360208110156107f657600080fd5b81019080803560ff169060200190929190505050613742565b005b60066020528060005260406000206000915090508060000160009054906101000a900473ffffffffffffffffffffffffffffffffffffffff1690806001018054600181600116156101000203166002900480601f0160208091040260200160405190810160405280929190818152602001828054600181600116156101000203166002900480156108e35780601f106108b8576101008083540402835291602001916108e3565b820191906000526020600020905b8154815290600101906020018083116108c657829003601f168201915b5050505050908060020154908060030154908060040160009054906101000a900460ff16905085565b6000600660003373ffffffffffffffffffffffffffffffffffffffff1673ffffffffffffffffffffffffffffffffffffffff168152602001908152602001600020600301541480156109a057506000600760003373ffffffffffffffffffffffffffffffffffffffff1673ffffffffffffffffffffffffffffffffffffffff16815260200190815260200160002060030154145b80156109ee57506000600860003373ffffffffffffffffffffffffffffffffffffffff1673ffffffffffffffffffffffffffffffffffffffff16815260200190815260200160002060020154145b8015610a3c57506000600960003373ffffffffffffffffffffffffffffffffffffffff1673ffffffffffffffffffffffffffffffffffffffff16815260200190815260200160002060020154145b8015610a8a57506000600a60003373ffffffffffffffffffffffffffffffffffffffff1673ffffffffffffffffffffffffffffffffffffffff16815260200190815260200160002060010154145b610a9357600080fd5b60008260ff1681548110610aa357fe5b90600052602060002001600660003373ffffffffffffffffffffffffffffffffffffffff1673ffffffffffffffffffffffffffffffffffffffff1681526020019081526020016000206001019080546001816001161561010002031660029004610b0e929190613a1a565b5080600660003373ffffffffffffffffffffffffffffffffffffffff1673ffffffffffffffffffffffffffffffffffffffff1681526020019081526020016000206002018190555042600660003373ffffffffffffffffffffffffffffffffffffffff1673ffffffffffffffffffffffffffffffffffffffff168152602001908152602001600020600301819055507f06000441d0fd121382d577a85b8c2d29836eb2eaff71fb7321410ef66ffdf6b73360008460ff1681548110610bcf57fe5b9060005260206000200183604051808473ffffffffffffffffffffffffffffffffffffffff1673ffffffffffffffffffffffffffffffffffffffff16815260200180602001838152602001828103825284818154600181600116156101000203166002900481526020019150805460018160011615610100020316600290048015610c9b5780601f10610c7057610100808354040283529160200191610c9b565b820191906000526020600020905b815481529060010190602001808311610c7e57829003601f168201915b505094505050505060405180910390a15050565b6000600660003373ffffffffffffffffffffffffffffffffffffffff1673ffffffffffffffffffffffffffffffffffffffff16815260200190815260200160002060030154148015610d4357506000600760003373ffffffffffffffffffffffffffffffffffffffff1673ffffffffffffffffffffffffffffffffffffffff16815260200190815260200160002060030154145b8015610d9157506000600860003373ffffffffffffffffffffffffffffffffffffffff1673ffffffffffffffffffffffffffffffffffffffff16815260200190815260200160002060020154145b8015610ddf57506000600960003373ffffffffffffffffffffffffffffffffffffffff1673ffffffffffffffffffffffffffffffffffffffff16815260200190815260200160002060020154145b8015610e2d57506000600a60003373ffffffffffffffffffffffffffffffffffffffff1673ffffffffffffffffffffffffffffffffffffffff16815260200190815260200160002060010154145b610e3657600080fd5b80600960003373ffffffffffffffffffffffffffffffffffffffff1673ffffffffffffffffffffffffffffffffffffffff1681526020019081526020016000206001018190555042600960003373ffffffffffffffffffffffffffffffffffffffff1673ffffffffffffffffffffffffffffffffffffffff168152602001908152602001600020600201819055507f7d2c54f022ee4e20568c983ea313c25bf91663f0bdeeab92fa434936c86d22473382604051808373ffffffffffffffffffffffffffffffffffffffff1673ffffffffffffffffffffffffffffffffffffffff1681526020018281526020019250505060405180910390a150565b806040518060400160405280600581526020017f56656e7565000000000000000000000000000000000000000000000000000000815250600160009054906101000a900473ffffffffffffffffffffffffffffffffffffffff1673ffffffffffffffffffffffffffffffffffffffff163373ffffffffffffffffffffffffffffffffffffffff1614801561114057506000600660008473ffffffffffffffffffffffffffffffffffffffff1673ffffffffffffffffffffffffffffffffffffffff1681526020019081526020016000206003015414158061105657506000600760008473ffffffffffffffffffffffffffffffffffffffff1673ffffffffffffffffffffffffffffffffffffffff1681526020019081526020016000206003015414155b806110a457506000600860008473ffffffffffffffffffffffffffffffffffffffff1673ffffffffffffffffffffffffffffffffffffffff1681526020019081526020016000206002015414155b806110f257506000600960008473ffffffffffffffffffffffffffffffffffffffff1673ffffffffffffffffffffffffffffffffffffffff1681526020019081526020016000206002015414155b8061113f57506000600a60008473ffffffffffffffffffffffffffffffffffffffff1673ffffffffffffffffffffffffffffffffffffffff16815260200190815260200160002060010154145b5b80156111535750600f54600b8054905010155b80156111665750601054600c8054905010155b61116f57600080fd5b60405160200180807f4172746973740000000000000000000000000000000000000000000000000000815250600601905060405160208183030381529060405280519060200120816040516020018082805190602001908083835b602083106111ed57805182526020820191506020810190506020830392506111ca565b6001836020036101000a038019825116818451168082178552505050505050905001915050604051602081830303815290604052805190602001201415611293576001600660008473ffffffffffffffffffffffffffffffffffffffff1673ffffffffffffffffffffffffffffffffffffffff16815260200190815260200160002060040160009054906101000a900460ff1660ff16141561128e57600080fd5b6115fe565b60405160200180807f53706f6e736f7200000000000000000000000000000000000000000000000000815250600701905060405160208183030381529060405280519060200120816040516020018082805190602001908083835b6020831061131157805182526020820191506020810190506020830392506112ee565b6001836020036101000a0380198251168184511680821785525050505050509050019150506040516020818303038152906040528051906020012014156113b7576001600860008473ffffffffffffffffffffffffffffffffffffffff1673ffffffffffffffffffffffffffffffffffffffff16815260200190815260200160002060030160009054906101000a900460ff1660ff1614156113b257600080fd5b6115fd565b60405160200180807f56656e7565000000000000000000000000000000000000000000000000000000815250600501905060405160208183030381529060405280519060200120816040516020018082805190602001908083835b602083106114355780518252602082019150602081019050602083039250611412565b6001836020036101000a0380198251168184511680821785525050505050509050019150506040516020818303038152906040528051906020012014156114db576001600760008473ffffffffffffffffffffffffffffffffffffffff1673ffffffffffffffffffffffffffffffffffffffff16815260200190815260200160002060040160009054906101000a900460ff1660ff1614156114d657600080fd5b6115fc565b60405160200180807f5075626c69636974796d616e6167657200000000000000000000000000000000815250601001905060405160208183030381529060405280519060200120816040516020018082805190602001908083835b602083106115595780518252602082019150602081019050602083039250611536565b6001836020036101000a0380198251168184511680821785525050505050509050019150506040516020818303038152906040528051906020012014156115fb576001600960008473ffffffffffffffffffffffffffffffffffffffff1673ffffffffffffffffffffffffffffffffffffffff16815260200190815260200160002060030160009054906101000a900460ff1660ff1614156115fa57600080fd5b5b5b5b5b82600d60006101000a81548173ffffffffffffffffffffffffffffffffffffffff021916908373ffffffffffffffffffffffffffffffffffffffff1602179055506001600760008573ffffffffffffffffffffffffffffffffffffffff1673ffffffffffffffffffffffffffffffffffffffff16815260200190815260200160002060040160006101000a81548160ff021916908360ff1602179055507f0d04bf3c69fbb16d168a862b1dbff7fc220c05d7247078f93fd3eb8b1bd61c8a33604051808273ffffffffffffffffffffffffffffffffffffffff1673ffffffffffffffffffffffffffffffffffffffff16815260200191505060405180910390a1505050565b600160009054906101000a900473ffffffffffffffffffffffffffffffffffffffff1681565b60028054600181600116156101000203166002900480601f0160208091040260200160405190810160405280929190818152602001828054600181600116156101000203166002900480156117bf5780601f10611794576101008083540402835291602001916117bf565b820191906000526020600020905b8154815290600101906020018083116117a257829003601f168201915b505050505081565b806040518060400160405280600681526020017f4172746973740000000000000000000000000000000000000000000000000000815250600160009054906101000a900473ffffffffffffffffffffffffffffffffffffffff1673ffffffffffffffffffffffffffffffffffffffff163373ffffffffffffffffffffffffffffffffffffffff161480156119d557506000600660008473ffffffffffffffffffffffffffffffffffffffff1673ffffffffffffffffffffffffffffffffffffffff168152602001908152602001600020600301541415806118eb57506000600760008473ffffffffffffffffffffffffffffffffffffffff1673ffffffffffffffffffffffffffffffffffffffff1681526020019081526020016000206003015414155b8061193957506000600860008473ffffffffffffffffffffffffffffffffffffffff1673ffffffffffffffffffffffffffffffffffffffff1681526020019081526020016000206002015414155b8061198757506000600960008473ffffffffffffffffffffffffffffffffffffffff1673ffffffffffffffffffffffffffffffffffffffff1681526020019081526020016000206002015414155b806119d457506000600a60008473ffffffffffffffffffffffffffffffffffffffff1673ffffffffffffffffffffffffffffffffffffffff16815260200190815260200160002060010154145b5b80156119e85750600f54600b8054905010155b80156119fb5750601054600c8054905010155b611a0457600080fd5b60405160200180807f4172746973740000000000000000000000000000000000000000000000000000815250600601905060405160208183030381529060405280519060200120816040516020018082805190602001908083835b60208310611a825780518252602082019150602081019050602083039250611a5f565b6001836020036101000a038019825116818451168082178552505050505050905001915050604051602081830303815290604052805190602001201415611b28576001600660008473ffffffffffffffffffffffffffffffffffffffff1673ffffffffffffffffffffffffffffffffffffffff16815260200190815260200160002060040160009054906101000a900460ff1660ff161415611b2357600080fd5b611e93565b60405160200180807f53706f6e736f7200000000000000000000000000000000000000000000000000815250600701905060405160208183030381529060405280519060200120816040516020018082805190602001908083835b60208310611ba65780518252602082019150602081019050602083039250611b83565b6001836020036101000a038019825116818451168082178552505050505050905001915050604051602081830303815290604052805190602001201415611c4c576001600860008473ffffffffffffffffffffffffffffffffffffffff1673ffffffffffffffffffffffffffffffffffffffff16815260200190815260200160002060030160009054906101000a900460ff1660ff161415611c4757600080fd5b611e92565b60405160200180807f56656e7565000000000000000000000000000000000000000000000000000000815250600501905060405160208183030381529060405280519060200120816040516020018082805190602001908083835b60208310611cca5780518252602082019150602081019050602083039250611ca7565b6001836020036101000a038019825116818451168082178552505050505050905001915050604051602081830303815290604052805190602001201415611d70576001600760008473ffffffffffffffffffffffffffffffffffffffff1673ffffffffffffffffffffffffffffffffffffffff16815260200190815260200160002060040160009054906101000a900460ff1660ff161415611d6b57600080fd5b611e91565b60405160200180807f5075626c69636974796d616e6167657200000000000000000000000000000000815250601001905060405160208183030381529060405280519060200120816040516020018082805190602001908083835b60208310611dee5780518252602082019150602081019050602083039250611dcb565b6001836020036101000a038019825116818451168082178552505050505050905001915050604051602081830303815290604052805190602001201415611e90576001600960008473ffffffffffffffffffffffffffffffffffffffff1673ffffffffffffffffffffffffffffffffffffffff16815260200190815260200160002060030160009054906101000a900460ff1660ff161415611e8f57600080fd5b5b5b5b5b82600b600f5481548110611ea357fe5b9060005260206000200160006101000a81548173ffffffffffffffffffffffffffffffffffffffff021916908373ffffffffffffffffffffffffffffffffffffffff1602179055506001600f5401600f819055506001600660008573ffffffffffffffffffffffffffffffffffffffff1673ffffffffffffffffffffffffffffffffffffffff16815260200190815260200160002060040160006101000a81548160ff021916908360ff1602179055507f05bbf62c0654170ee5969d7ca61649b014c45b255b5db28a9e156da4f127fea933604051808273ffffffffffffffffffffffffffffffffffffffff1673ffffffffffffffffffffffffffffffffffffffff16815260200191505060405180910390a1505050565b806040518060400160405280601081526020017f5075626c69636974796d616e6167657200000000000000000000000000000000815250600160009054906101000a900473ffffffffffffffffffffffffffffffffffffffff1673ffffffffffffffffffffffffffffffffffffffff163373ffffffffffffffffffffffffffffffffffffffff161480156121c957506000600660008473ffffffffffffffffffffffffffffffffffffffff1673ffffffffffffffffffffffffffffffffffffffff168152602001908152602001600020600301541415806120df57506000600760008473ffffffffffffffffffffffffffffffffffffffff1673ffffffffffffffffffffffffffffffffffffffff1681526020019081526020016000206003015414155b8061212d57506000600860008473ffffffffffffffffffffffffffffffffffffffff1673ffffffffffffffffffffffffffffffffffffffff1681526020019081526020016000206002015414155b8061217b57506000600960008473ffffffffffffffffffffffffffffffffffffffff1673ffffffffffffffffffffffffffffffffffffffff1681526020019081526020016000206002015414155b806121c857506000600a60008473ffffffffffffffffffffffffffffffffffffffff1673ffffffffffffffffffffffffffffffffffffffff16815260200190815260200160002060010154145b5b80156121dc5750600f54600b8054905010155b80156121ef5750601054600c8054905010155b6121f857600080fd5b60405160200180807f4172746973740000000000000000000000000000000000000000000000000000815250600601905060405160208183030381529060405280519060200120816040516020018082805190602001908083835b602083106122765780518252602082019150602081019050602083039250612253565b6001836020036101000a03801982511681845116808217855250505050505090500191505060405160208183030381529060405280519060200120141561231c576001600660008473ffffffffffffffffffffffffffffffffffffffff1673ffffffffffffffffffffffffffffffffffffffff16815260200190815260200160002060040160009054906101000a900460ff1660ff16141561231757600080fd5b612687565b60405160200180807f53706f6e736f7200000000000000000000000000000000000000000000000000815250600701905060405160208183030381529060405280519060200120816040516020018082805190602001908083835b6020831061239a5780518252602082019150602081019050602083039250612377565b6001836020036101000a038019825116818451168082178552505050505050905001915050604051602081830303815290604052805190602001201415612440576001600860008473ffffffffffffffffffffffffffffffffffffffff1673ffffffffffffffffffffffffffffffffffffffff16815260200190815260200160002060030160009054906101000a900460ff1660ff16141561243b57600080fd5b612686565b60405160200180807f56656e7565000000000000000000000000000000000000000000000000000000815250600501905060405160208183030381529060405280519060200120816040516020018082805190602001908083835b602083106124be578051825260208201915060208101905060208303925061249b565b6001836020036101000a038019825116818451168082178552505050505050905001915050604051602081830303815290604052805190602001201415612564576001600760008473ffffffffffffffffffffffffffffffffffffffff1673ffffffffffffffffffffffffffffffffffffffff16815260200190815260200160002060040160009054906101000a900460ff1660ff16141561255f57600080fd5b612685565b60405160200180807f5075626c69636974796d616e6167657200000000000000000000000000000000815250601001905060405160208183030381529060405280519060200120816040516020018082805190602001908083835b602083106125e257805182526020820191506020810190506020830392506125bf565b6001836020036101000a038019825116818451168082178552505050505050905001915050604051602081830303815290604052805190602001201415612684576001600960008473ffffffffffffffffffffffffffffffffffffffff1673ffffffffffffffffffffffffffffffffffffffff16815260200190815260200160002060030160009054906101000a900460ff1660ff16141561268357600080fd5b5b5b5b5b82600e60006101000a81548173ffffffffffffffffffffffffffffffffffffffff021916908373ffffffffffffffffffffffffffffffffffffffff1602179055506001600960008573ffffffffffffffffffffffffffffffffffffffff1673ffffffffffffffffffffffffffffffffffffffff16815260200190815260200160002060030160006101000a81548160ff021916908360ff1602179055507ff2882692b991caad73600105dcbfee53c264483635a927636064af19cfba664133604051808273ffffffffffffffffffffffffffffffffffffffff1673ffffffffffffffffffffffffffffffffffffffff16815260200191505060405180910390a1505050565b60038054600181600116156101000203166002900480601f0160208091040260200160405190810160405280929190818152602001828054600181600116156101000203166002900480156128225780601f106127f757610100808354040283529160200191612822565b820191906000526020600020905b81548152906001019060200180831161280557829003601f168201915b505050505081565b6000600660003373ffffffffffffffffffffffffffffffffffffffff1673ffffffffffffffffffffffffffffffffffffffff168152602001908152602001600020600301541480156128be57506000600760003373ffffffffffffffffffffffffffffffffffffffff1673ffffffffffffffffffffffffffffffffffffffff16815260200190815260200160002060030154145b801561290c57506000600860003373ffffffffffffffffffffffffffffffffffffffff1673ffffffffffffffffffffffffffffffffffffffff16815260200190815260200160002060020154145b801561295a57506000600960003373ffffffffffffffffffffffffffffffffffffffff1673ffffffffffffffffffffffffffffffffffffffff16815260200190815260200160002060020154145b80156129a857506000600a60003373ffffffffffffffffffffffffffffffffffffffff1673ffffffffffffffffffffffffffffffffffffffff16815260200190815260200160002060010154145b6129b157600080fd5b80600860003373ffffffffffffffffffffffffffffffffffffffff1673ffffffffffffffffffffffffffffffffffffffff1681526020019081526020016000206001018190555042600860003373ffffffffffffffffffffffffffffffffffffffff1673ffffffffffffffffffffffffffffffffffffffff168152602001908152602001600020600201819055507fec4384a787bb840b053a3c661212e134a5bed3393ed944fcaff68c8dae1cc8513382604051808373ffffffffffffffffffffffffffffffffffffffff1673ffffffffffffffffffffffffffffffffffffffff1681526020018281526020019250505060405180910390a150565b60096020528060005260406000206000915090508060000160009054906101000a900473ffffffffffffffffffffffffffffffffffffffff16908060010154908060020154908060030160009054906101000a900460ff16905084565b60048054600181600116156101000203166002900480601f016020809104026020016040519081016040528092919081815260200182805460018160011615610100020316600290048015612ba05780601f10612b7557610100808354040283529160200191612ba0565b820191906000526020600020905b815481529060010190602001808311612b8357829003601f168201915b505050505081565b6000600660003373ffffffffffffffffffffffffffffffffffffffff1673ffffffffffffffffffffffffffffffffffffffff16815260200190815260200160002060030154148015612c3c57506000600760003373ffffffffffffffffffffffffffffffffffffffff1673ffffffffffffffffffffffffffffffffffffffff16815260200190815260200160002060030154145b8015612c8a57506000600860003373ffffffffffffffffffffffffffffffffffffffff1673ffffffffffffffffffffffffffffffffffffffff16815260200190815260200160002060020154145b8015612cd857506000600960003373ffffffffffffffffffffffffffffffffffffffff1673ffffffffffffffffffffffffffffffffffffffff16815260200190815260200160002060020154145b8015612d2657506000600a60003373ffffffffffffffffffffffffffffffffffffffff1673ffffffffffffffffffffffffffffffffffffffff16815260200190815260200160002060010154145b612d2f57600080fd5b81600760003373ffffffffffffffffffffffffffffffffffffffff1673ffffffffffffffffffffffffffffffffffffffff1681526020019081526020016000206002018190555080600760003373ffffffffffffffffffffffffffffffffffffffff1673ffffffffffffffffffffffffffffffffffffffff1681526020019081526020016000206001018190555042600760003373ffffffffffffffffffffffffffffffffffffffff1673ffffffffffffffffffffffffffffffffffffffff168152602001908152602001600020600301819055507fa0cbfb0e5ea1cfcf5898d5aa05883be929277d52b7a59ea8f321e0d80e98c37a338383604051808473ffffffffffffffffffffffffffffffffffffffff1673ffffffffffffffffffffffffffffffffffffffff168152602001838152602001828152602001935050505060405180910390a15050565b600560009054906101000a900460ff1681565b60076020528060005260406000206000915090508060000160009054906101000a900473ffffffffffffffffffffffffffffffffffffffff16908060010154908060020154908060030154908060040160009054906101000a900460ff16905085565b60086020528060005260406000206000915090508060000160009054906101000a900473ffffffffffffffffffffffffffffffffffffffff16908060010154908060020154908060030160009054906101000a900460ff16905084565b806040518060400160405280600781526020017f53706f6e736f7200000000000000000000000000000000000000000000000000815250600160009054906101000a900473ffffffffffffffffffffffffffffffffffffffff1673ffffffffffffffffffffffffffffffffffffffff163373ffffffffffffffffffffffffffffffffffffffff1614801561315c57506000600660008473ffffffffffffffffffffffffffffffffffffffff1673ffffffffffffffffffffffffffffffffffffffff1681526020019081526020016000206003015414158061307257506000600760008473ffffffffffffffffffffffffffffffffffffffff1673ffffffffffffffffffffffffffffffffffffffff1681526020019081526020016000206003015414155b806130c057506000600860008473ffffffffffffffffffffffffffffffffffffffff1673ffffffffffffffffffffffffffffffffffffffff1681526020019081526020016000206002015414155b8061310e57506000600960008473ffffffffffffffffffffffffffffffffffffffff1673ffffffffffffffffffffffffffffffffffffffff1681526020019081526020016000206002015414155b8061315b57506000600a60008473ffffffffffffffffffffffffffffffffffffffff1673ffffffffffffffffffffffffffffffffffffffff16815260200190815260200160002060010154145b5b801561316f5750600f54600b8054905010155b80156131825750601054600c8054905010155b61318b57600080fd5b60405160200180807f4172746973740000000000000000000000000000000000000000000000000000815250600601905060405160208183030381529060405280519060200120816040516020018082805190602001908083835b6020831061320957805182526020820191506020810190506020830392506131e6565b6001836020036101000a0380198251168184511680821785525050505050509050019150506040516020818303038152906040528051906020012014156132af576001600660008473ffffffffffffffffffffffffffffffffffffffff1673ffffffffffffffffffffffffffffffffffffffff16815260200190815260200160002060040160009054906101000a900460ff1660ff1614156132aa57600080fd5b61361a565b60405160200180807f53706f6e736f7200000000000000000000000000000000000000000000000000815250600701905060405160208183030381529060405280519060200120816040516020018082805190602001908083835b6020831061332d578051825260208201915060208101905060208303925061330a565b6001836020036101000a0380198251168184511680821785525050505050509050019150506040516020818303038152906040528051906020012014156133d3576001600860008473ffffffffffffffffffffffffffffffffffffffff1673ffffffffffffffffffffffffffffffffffffffff16815260200190815260200160002060030160009054906101000a900460ff1660ff1614156133ce57600080fd5b613619565b60405160200180807f56656e7565000000000000000000000000000000000000000000000000000000815250600501905060405160208183030381529060405280519060200120816040516020018082805190602001908083835b60208310613451578051825260208201915060208101905060208303925061342e565b6001836020036101000a0380198251168184511680821785525050505050509050019150506040516020818303038152906040528051906020012014156134f7576001600760008473ffffffffffffffffffffffffffffffffffffffff1673ffffffffffffffffffffffffffffffffffffffff16815260200190815260200160002060040160009054906101000a900460ff1660ff1614156134f257600080fd5b613618565b60405160200180807f5075626c69636974796d616e6167657200000000000000000000000000000000815250601001905060405160208183030381529060405280519060200120816040516020018082805190602001908083835b602083106135755780518252602082019150602081019050602083039250613552565b6001836020036101000a038019825116818451168082178552505050505050905001915050604051602081830303815290604052805190602001201415613617576001600960008473ffffffffffffffffffffffffffffffffffffffff1673ffffffffffffffffffffffffffffffffffffffff16815260200190815260200160002060030160009054906101000a900460ff1660ff16141561361657600080fd5b5b5b5b5b82600c6010548154811061362a57fe5b9060005260206000200160006101000a81548173ffffffffffffffffffffffffffffffffffffffff021916908373ffffffffffffffffffffffffffffffffffffffff1602179055506001601054016010819055506001600860008573ffffffffffffffffffffffffffffffffffffffff1673ffffffffffffffffffffffffffffffffffffffff16815260200190815260200160002060030160006101000a81548160ff021916908360ff1602179055507f78db37824e78f5bff5768def3330d3664b4038dfb19163c1fc97f1242c4281e233604051808273ffffffffffffffffffffffffffffffffffffffff1673ffffffffffffffffffffffffffffffffffffffff16815260200191505060405180910390a1505050565b6000600660003373ffffffffffffffffffffffffffffffffffffffff1673ffffffffffffffffffffffffffffffffffffffff168152602001908152602001600020600301541480156137d657506000600760003373ffffffffffffffffffffffffffffffffffffffff1673ffffffffffffffffffffffffffffffffffffffff16815260200190815260200160002060030154145b801561382457506000600860003373ffffffffffffffffffffffffffffffffffffffff1673ffffffffffffffffffffffffffffffffffffffff16815260200190815260200160002060020154145b801561387257506000600960003373ffffffffffffffffffffffffffffffffffffffff1673ffffffffffffffffffffffffffffffffffffffff16815260200190815260200160002060020154145b80156138c057506000600a60003373ffffffffffffffffffffffffffffffffffffffff1673ffffffffffffffffffffffffffffffffffffffff16815260200190815260200160002060010154145b6138c957600080fd5b80600560019054906101000a900460ff1660ff168160ff166011540111156138f057600080fd5b81600a60003373ffffffffffffffffffffffffffffffffffffffff1673ffffffffffffffffffffffffffffffffffffffff16815260200190815260200160002060000160146101000a81548160ff021916908360ff16021790555042600a60003373ffffffffffffffffffffffffffffffffffffffff1673ffffffffffffffffffffffffffffffffffffffff168152602001908152602001600020600101819055508160ff166011600082825401925050819055507f810f87b400de07afb583d430da77b9b92e5a82dd00cafd84fc0ef48b993e7fdd3383604051808373ffffffffffffffffffffffffffffffffffffffff1673ffffffffffffffffffffffffffffffffffffffff1681526020018260ff1660ff1681526020019250505060405180910390a15050565b828054600181600116156101000203166002900490600052602060002090601f016020900481019282601f10613a535780548555613a90565b82800160010185558215613a9057600052602060002091601f016020900482015b82811115613a8f578254825591600101919060010190613a74565b5b509050613a9d9190613aa1565b5090565b613ac391905b80821115613abf576000816000905550600101613aa7565b5090565b9056fea265627a7a7231582063c2db17e5465be0c9f7582b94c5cc8b18a78d3f3190e0fc87a47f8910cef39264736f6c63430005100032",
  "source": "pragma solidity ^0.5.9;\ncontract Event {\n\n    //enum Category {Dance, Music, Paint}\n    string[] Category;\n    // categories of artists\n    \n    struct Artist {\n        address addr;\n        string category;\n        uint quote;\n        uint timestamp;\n\t\tuint8 selected;\n       // artist details;\n    }\n    \n    struct Venue {\n        address addr;\n        uint quote;\n        uint area;\n        uint timestamp;\n\t\tuint8 selected;\n       // venue details;\n    }\n    \n    struct Sponsor {\n        address addr;\n        uint quote;\n        uint timestamp;\n\t\tuint8 selected;\n       // sponsor details;\n    }\n    \n    struct PublicityManager {\n        address addr;\n        uint quote;\n        uint timestamp;\n\t\tuint8 selected;\n       // publicity manager details;\n    }\n    \n    struct Participant {\n        address addr;\n        uint8 count;\n        uint timestamp;\n       // participants details;\n    }\n\n    address public eventHead;\n    string public location;\n    string public eventName; \n    string public eventDescription;\n    uint8 public fees;\n    uint8 maxAllowed;\n    uint8 artistsNum;\n    \n    mapping(address => Artist) public artists;\n    mapping(address => Venue) public venues;\n    mapping(address => Sponsor) public sponsors;\n    mapping(address => PublicityManager) public publicitymanagers;\n    mapping(address => Participant) participants;\n    \n    address[] artistsArr;\n    address[] sponsorsArr;\n    address venue;\n    address publicitymanager;\n    uint artistsArrCnt;\n    uint sponsorsArrCnt;\n    uint participantCnt;\n\n    /// Create a new eevnt with its details.\n    constructor() public {\n        eventHead = msg.sender;\n        eventName = \"ABC\";\n        eventDescription = \"abc\";\n        location = \"xyz\";\n        fees = 250;\n        maxAllowed = 200;\n        artistsNum = 3;\n        artistsArr.length = 3;\n        sponsorsArr.length = 4;\n        Category = ['Dance', 'Music', 'Paint'];\n         \n    }\n\n    \n    // Registration modifier\n    modifier validRegistration()\n    { require(artists[msg.sender].timestamp == 0 && venues[msg.sender].timestamp == 0 && sponsors[msg.sender].timestamp == 0 && publicitymanagers[msg.sender].timestamp == 0 && participants[msg.sender].timestamp == 0);\n      _;\n    }\n    \n    // participant count modifier\n    modifier validCount(uint8 _count)\n    { require((participantCnt+_count) <= maxAllowed);\n      _;\n    }\n    \n    // Selection modifier\n    modifier validSelection(address _addr, string memory role)\n    { require(msg.sender == eventHead && (artists[_addr].timestamp != 0 || venues[_addr].timestamp != 0 || sponsors[_addr].timestamp != 0 || publicitymanagers[_addr].timestamp != 0 || participants[_addr].timestamp == 0) && (artistsArr.length>=artistsArrCnt) && (sponsorsArr.length>=sponsorsArrCnt));\n      if(keccak256(abi.encodePacked(role)) == keccak256(abi.encodePacked(\"Artist\"))){\n          require(artists[_addr].selected != 1);\n      }\n      else if(keccak256(abi.encodePacked(role)) == keccak256(abi.encodePacked(\"Sponsor\"))){\n          require(sponsors[_addr].selected != 1);\n      }\n      else if(keccak256(abi.encodePacked(role)) == keccak256(abi.encodePacked(\"Venue\"))){\n          require(venues[_addr].selected != 1);\n      }\n      else if(keccak256(abi.encodePacked(role)) == keccak256(abi.encodePacked(\"Publicitymanager\"))){\n          require(publicitymanagers[_addr].selected != 1);\n      }\n      _;\n    }\n    \n    \n    event artistReg(address _addr, string _category, uint _quote);\n    /// let an artist register.\n    function artistRegister(uint8 _category, uint _quote) public validRegistration() {\n        //if (artists[msg.sender].timestamp != 0) return;\n        \n        artists[msg.sender].category = Category[_category];\n        artists[msg.sender].quote = _quote;\n        artists[msg.sender].timestamp = now;\n        \n        emit artistReg(msg.sender, Category[_category], _quote);\n    }\n    \n    event venueReg(address _addr, uint _area, uint _quote);\n    /// let a venue register.\n    function venueRegister(uint _area, uint _quote) public validRegistration() {\n        //if (venues[msg.sender].timestamp != 0) return;\n        \n        venues[msg.sender].area = _area;\n        venues[msg.sender].quote = _quote;\n        venues[msg.sender].timestamp = now;\n        \n        emit venueReg(msg.sender, _area, _quote);\n    }\n    \n    event sponsorReg(address _addr, uint _quote);\n    /// let a sponsor register.\n    function sponsorRegister(uint _quote) public validRegistration() {\n        //if (sponsors[msg.sender].timestamp != 0) return;\n        \n        sponsors[msg.sender].quote = _quote;\n        sponsors[msg.sender].timestamp = now;\n        \n        emit sponsorReg(msg.sender, _quote);\n    }\n    \n    event publicitymanagerReg(address _addr, uint _quote);\n    /// let a publicity manager register.\n    function publicitymanagerRegister(uint _quote) public validRegistration() {\n        //if (publicitymanagers[msg.sender].timestamp != 0) return;\n        \n        publicitymanagers[msg.sender].quote = _quote;\n        publicitymanagers[msg.sender].timestamp = now;\n        \n        emit publicitymanagerReg(msg.sender, _quote);\n    }\n    \n    event participantReg(address _addr, uint8 _count);\n    /// let a participant register.\n    function participantRegister(uint8 _count) public validRegistration() validCount(_count){\n        //if (participants[msg.sender].timestamp != 0) return;\n        \n        participants[msg.sender].count = _count;\n        participants[msg.sender].timestamp = now;\n        participantCnt += _count;\n        \n        emit participantReg(msg.sender, _count);\n    }\n\t\n    event artistSelect(address _addr);\n    /// Select a registered artist.\n    function selectArtist(address _addr) public validSelection(_addr,\"Artist\") {\n        //if (msg.sender == eventHead && artists[_addr].timestamp == 0) return;\n        \n        artistsArr[artistsArrCnt] = _addr;\n        artistsArrCnt = artistsArrCnt+1;\n\t\tartists[_addr].selected = 1;\n\t\t\n\t\temit artistSelect(msg.sender);\n    }\n    \n\tevent sponsorSelect(address _addr);\n    /// Select a registered sponsor.\n    function selectSponsor(address _addr) public validSelection(_addr,\"Sponsor\") {\n        sponsorsArr[sponsorsArrCnt] = _addr;\n        sponsorsArrCnt = sponsorsArrCnt+1;\n\t\tsponsors[_addr].selected = 1;\n\t\t\n\t\temit sponsorSelect(msg.sender);\n    }\n    \n\tevent VenueSelect(address _addr);\n    /// Select a registered venue.\n    function selectVenue(address _addr) public validSelection(_addr,\"Venue\") {\n        venue = _addr;\n\t\tvenues[_addr].selected = 1;\n\t\t\n\t\temit VenueSelect(msg.sender);\n    }\n    \n\tevent PublicitymanagerSelect(address _addr);\n    /// Select a registered publicity manager.\n    function selectPublicitymanager(address _addr) public validSelection(_addr,\"Publicitymanager\") {\n        publicitymanager = _addr;\n\t\tpublicitymanagers[_addr].selected = 1;\n\t\t\n\t\temit PublicitymanagerSelect(msg.sender);\n    }\n\n}\n \n",
  "sourcePath": "C:/Users/Arpit Garg/Desktop/Blockchain/dApps/Event/contracts/Event.sol",
  "compiler": {
    "name": "solc",
    "version": "0.5.16+commit.9c3226ce.Emscripten.clang"
  },
  "schemaVersion": "3.4.1",
  "updatedAt": "2021-07-20T14:04:53.331Z",
  "networkType": "ethereum",
  "devdoc": {
    "methods": {}
  },
  "userdoc": {
    "methods": {
      "artistRegister(uint8,uint256)": {
        "notice": "let an artist register."
      },
      "constructor": "Create a new eevnt with its details.",
      "participantRegister(uint8)": {
        "notice": "let a participant register."
      },
      "publicitymanagerRegister(uint256)": {
        "notice": "let a publicity manager register."
      },
      "selectArtist(address)": {
        "notice": "Select a registered artist."
      },
      "selectPublicitymanager(address)": {
        "notice": "Select a registered publicity manager."
      },
      "selectSponsor(address)": {
        "notice": "Select a registered sponsor."
      },
      "selectVenue(address)": {
        "notice": "Select a registered venue."
      },
      "sponsorRegister(uint256)": {
        "notice": "let a sponsor register."
      },
      "venueRegister(uint256,uint256)": {
        "notice": "let a venue register."
      }
    }
  }
}